:020000040800F2
:1000000008070020B501000835190008051200088E
:1000100031190008F1020008911B000800000000DF
:100020000000000000000000000000007D1A000831
:10003000AD0300080000000059190008391B000832
:10004000CF010008CF010008CF010008CF01000850
:10005000CF010008CF010008CF010008CF01000840
:10006000CF010008CF010008CF010008CF01000830
:10007000CF010008CF010008CF010008CF01000820
:10008000CF010008CF010008CF010008CF01000810
:10009000CF010008CF010008CF010008CF01000800
:1000A000CF010008CF010008CF010008CF010008F0
:1000B000411B0008CF010008CF010008CF01000854
:1000C000CF010008CF010008CF010008CF010008D0
:1000D000CF010008CF010008CF010008CF010008C0
:1000E000B1030008CF010008CF01000800F002F8BA
:1000F00000F050F814A696E8000CB244B344DA4578
:1001000001D100F047F8BAE80F000FA696E83000DA
:10011000A5EB040504EB0607AAEB0704A7F101070A
:100120004FEA15154FEA3414A4F10104AC4201D38F
:1001300000F030F813F0010F18BFFB1A43F0010371
:1001400000F001F8DBE71847F4290000142A00004A
:10015000103A24BF78C878C1FAD8520724BF30C8F3
:1001600030C144BF04680C60704700007047000055
:100170000023002400250026103A28BF78C1FBD8B0
:10018000520728BF30C148BF0B6070471FB51FBD65
:1001900010B510BD00F071F81146FFF7F7FF02F03F
:1001A000A3F800F08FF803B4FFF7F2FF03BC00F0F0
:1001B00097F800000948804709480047FEE7FEE736
:1001C000FEE7FEE7FEE7FEE7FEE7FEE7FEE7FEE707
:1001D00004480549054A064B704700003D1B0008CE
:1001E000ED00000808010020080700200803002097
:1001F000080300204FF0013C50F8042B51F8043B59
:100200009A4221D1A2EB0C03934313EACC1317D1EA
:1002100050F8042B51F8043B9A4215D1A2EB0C0381
:10022000934313EACC130BD150F8042B51F8043B41
:100230009A4209D1A2EB0C03934313EACC13DBD00F
:100240004FF00000704700BFD01A01BAB1FA81F137
:1002500001F0180122FA01F0CB40DBB2C0B2C01AA3
:10026000C1F120012CFA01F3D11A914311EAC31113
:10027000E6D17047704770477047754600F02CF81C
:10028000AE4605006946534620F00700854618B083
:1002900020B5FFF79DFFBDE820404FF000064FF06E
:1002A00000074FF000084FF0000BAC46ACE8C00967
:1002B000ACE8C009ACE8C009ACE8C00921F007010E
:1002C0008D46704710B50446AFF300802046BDE868
:1002D0001040FFF768BF0000004870472000002072
:1002E00001491820ABBEFEE726000200704700005F
:1002F000FEE700002DE9F04784B040F60008C4F2A4
:1003000001088A4606464046102100224FF00009A7
:1003100000F0D4F9802040F2A40540EA4600C2F281
:1003200000058DF8090064240DF1090102AA284690
:100330000123009400F0E6FD0DF10B010DF10A021E
:10034000284601238DF80B90009400F0DBFD9DF80A
:100350000A7040461021012200F0B0F940461021F9
:10036000002227EA0A0700F0A9F97E2000EA4600E9
:100370008DF80D000DF10D0103AA2846012300940C
:1003800000F0C0FD0DF10F010DF10E022846012312
:100390008DF80F70009400F0B5FD40461021012249
:1003A00000F08CF904B0BDE8F08700007047000051
:1003B00040F28002C2F20002012140F60C001170EE
:1003C0004FF60841C4F20100CFF6FF714358DB0439
:1003D0000ED443589B0411D443585B041AD4435899
:1003E0001B045ED50368DB0538D4412358E000BF09
:1003F0000368DB0508D4312352E000BF0368DB0546
:100400000ED432234CE000BF03689B050ED4342386
:1004100046E000BF0368DB050ED4332340E000BF95
:1004200003689B050ED435233AE000BF03685B05E3
:100430000ED4372334E000BF03689B0514D4362361
:100440002EE000BF03685B0514D4382328E000BF0A
:1004500003681B0525D42A2322E000BF03689B05FF
:100460000ED442231CE000BF03685B050ED4392381
:1004700016E000BF03681B0513D4302310E000BF53
:1004800003685B0508D443230AE000BF03681B052B
:1004900007D4232304E000BF03681B0501D44423D1
:1004A000D370425842F47042425070472DE9F04FE9
:1004B00082B00E68002E00F0FD8041F20042C4F2CE
:1004C0000102042340F2004E904208BF03234FF67E
:1004D000FF7CC4F2010E009300240123C1F2100C32
:1004E0004FF0000A4FF0000944E000BF012704F07C
:1004F0000C030F229A402BEA020207FA03F34FEA99
:100500009A051A4346F825204E6840F20C45F2023F
:10051000DEF8082054BF22EA080242EA0802C4F2C8
:100520000105CEF808202A68B30254BF22EA080267
:1005300042EA08022A60B303DEF8042054BF22EA2C
:10054000080242EA0802F303CEF80420DEF8002095
:100550004FF0010354BF22EA080242EA0802CEF833
:1005600000200E680AF1010A36FA0AF204F10404C6
:1005700000F0A08003FA0AFB16EA0B08F1D04E68DF
:10058000664511DC122E55D8DFE806F0340A4448DF
:10059000545454545454545454545454544C50007B
:1005A000D1F80C9046E000BF4FF6FF72C1F2210275
:1005B00096420FDC0022C1F2110296421AD00022AC
:1005C000C1F21202964215D00022C1F221029642D7
:1005D00010D02FE00022C1F2220296420AD000225F
:1005E000C1F23102964205D00022C1F23202964297
:1005F00020D100BF8A684AB1012A14BFC0F814B0E4
:10060000C0F810B04FF0080914E000BF4FF0040923
:1006100010E000BFCA6802F108090BE04FF00009C2
:1006200008E000BFCA6802F1040903E0CA6802F1E9
:100630000C0900BF22460646B8F5807F24BF203A49
:10064000043637680F25954027EA050509FA02F2B6
:100650002A433260CA79D2067FF583AF41F218038C
:10066000C4F202031A68AEF57E7642F001021A6007
:100670001A6802F001020192019A2AF0030256F868
:1006800002B040F60002C4F20102904210D040F6DF
:100690000042C4F2010290423FF428AF41F200024E
:1006A000C4F20102009F904208BF02271FE700BF6B
:1006B00000271CE702B0BDE8F08F0000002A08BF49
:1006C000090401617047000040F20010C2F200000E
:1006D0000068704740F2140040F20011C2F20000BE
:1006E000C2F2000100780A681044086070470000F8
:1006F00080B542F20000C4F20200016841F010012E
:100700000160032000F07AF80F2000F005F800F0F7
:1007100027F8002080BD000070B540F21406C2F238
:10072000000640F21C013278C2F200014FF47A73E5
:100730000968B3FBF2F20446B1FBF2F1084600F09F
:100740004BFD0F2C4FF0010508D838B94FF0FF30A2
:1007500021460022002500F025F87460284670BD6F
:1007600082B041F21800C4F202000168022241F096
:1007700001010160016801F00101019101994168E5
:1007800041F080514160406800F080500090009836
:100790000420C4F20100016862F31A61016002B032
:1007A0007047000010B54EF60C5CCEF2000CDCF881
:1007B0000030C3F3022E8EF00704042C28BF04245B
:1007C000BEF103034FF0FF3E0EFA04F438BF0023DE
:1007D000A14399400EFA03F39A43114300F00F022C
:1007E00000F160430901043A03F5644362440028C0
:1007F00048BF02F10C03197010BD00004EF60C51F9
:10080000CEF200010A684FF6FF031A4060F30A2295
:1008100042F0806040F0FD7008607047002804BF1F
:10082000012070472DE9F04381B042F20008C4F284
:1008300002080446D8F800000D4600F00700884280
:100840000CD2D8F8000020F007002843C8F80000B8
:10085000D8F8000000F00700A8426CD1206841F2EF
:1008600004098107C4F2020917D5410705D5D9F853
:10087000001041F4E061C9F80010010705D5D9F86E
:10088000001041F46051C9F80010D9F80010A268B6
:1008900021F0F0011143C9F80010C00742D1D8F887
:1008A000000000F00700A8420CD9D8F8000020F0A2
:1008B00007002843C8F80000D8F8000000F007003F
:1008C000A84238D12068410707D5D9F80010E2685E
:1008D00021F4E0611143C9F80010000708D5D9F8E8
:1008E0000000216920F4605040EAC100C9F800000E
:1008F000D9F8002002F00C00082841F20020C0F2D4
:100900007A0051D142F60A33C2F38341C0F60003A4
:10091000595CD2033CD440F60010C0F23D0048437D
:1009200042E000BF606802280AD001282AD159F8A5
:10093000041C890308D4012001B0BDE8F08300BF86
:1009400059F8041C8901F6D5D9F8001021F00301EB
:100950000843C9F80000FFF7B7FE064641F28837A2
:10096000D9F80000616800F00C00B0EB810F96D060
:10097000FFF7AAFE801BB842F2D9032001B0BDE800
:10098000F08300BF59F8041C8907D4D5DCE700BF09
:10099000D9F8002042F60833C2F34042C0F6000303
:1009A0009A5C4843B0FBF2F0D9F8001042F6F82206
:1009B000C1F30311C0F60002515C40F21C0220FAA0
:1009C00001F140F21800C2F200000068C2F2000219
:1009D0001160FFF7A1FE002001B0BDE8F083000028
:1009E000002804BF012070472DE9F04182B0044681
:1009F000007841F20006C007C4F202060CD070680D
:100A000000F00C00042840F081803068800303D59A
:100A10006068002800F04E81207880071BD5706840
:100A200010F00C0F09D0706800F00C00082840F09E
:100A30008B807068C00300F187803068800703D521
:100A40002069012840F036813068616920F0F800A3
:100A500040EAC10030602078000713D420784007B6
:100A60002CD4E569002D00F02081706800F00C00A6
:100A7000082840F0AF80012D40F00C81012002B029
:100A8000BDE8F081A069002800F08C800020C4F24D
:100A900042200121C0F88014FFF716FE054600BF72
:100AA000706A800700F1BA80FFF70EFE401B022833
:100AB000F6D9032002B0BDE8F08100BFF0695FEA1B
:100AC000C00808D4F06940F08050F061F06900F08F
:100AD00080500090009847F20007C4F20007386881
:100AE000C0054DD4386840F480703860FFF7ECFDE5
:100AF000054600BF3868C00542D4FFF7E5FD401B3E
:100B00006428F7D9032002B0BDE8F081706800F0D6
:100B10000C00082803D17068C0033FF576AF606809
:100B2000002800F00981B0F5A02F00F01D81B0F57C
:100B3000803F00F01D81306820F4803030603068E4
:100B400020F4802017E100BF2069002840F2000057
:100B5000C4F2422000F08C8001210160FFF7B4FD57
:100B6000054600BF306880073FF56EAFFFF7ACFD6C
:100B7000401B0228F6D9032002B0BDE8F08100BF77
:100B8000E068002800F09A80052800F0B180012874
:100B900000F0B280306A20F001003062306A20F04C
:100BA0000400ACE00020C4F242200021C0F8801410
:100BB000FFF78AFD054600BF706A80077FF54EAFDC
:100BC000FFF782FD401B0228F6D9032002B0BDE8E2
:100BD000F08100BF0027C4F2422700203866FFF7EB
:100BE00073FD022D05460DD13068800140F1D6809D
:100BF000FFF76AFD401B02284FF00300F4D902B052
:100C0000BDE8F081306880014FD5FFF75DFD401BE6
:100C100002284FF00300F5D9F1E700BF40F21C00B5
:100C2000C2F20000006844F6D351C1F26201A0FB99
:100C30000101480A019000BF00BF0198411E002831
:100C400001913FF40BAF00BF0198411E00280191B4
:100C50003FF404AF00BF0198411E002801913FF40A
:100C6000FDAE00BF0198411E00280191E4D1F5E6D8
:100C700000210160FFF728FD054600BF30688007AE
:100C80007FF5E9AEFFF720FD401B02284FF003007F
:100C9000F4D9B4E77068216A00F480328A4209D13D
:100CA000616A00F47010884204D1002002B0BDE8EF
:100CB000F08100BF012002B0BDE8F081306A20F071
:100CC00001003062306A20F004003062FFF7FCFC63
:100CD000054641F2883700BF306A800722D5FFF70A
:100CE000F3FC401BB8424FF00300F5D987E700BF83
:100CF000306A40F004003062306A40F00100306237
:100D0000FFF7E2FC054641F2883700BF306A8007F2
:100D100008D4FFF7D9FC401BB842F7D9032002B032
:100D2000BDE8F081B8F1000F3FF59BAEF06920F00F
:100D30008050F06195E600BF306820F4803030606C
:100D4000306820F480203060FFF7BEFC054600BF0D
:100D5000306880037FF560AEFFF7B6FC401B642867
:100D60004FF00300F4D94AE7306840F48020306047
:100D7000306840F480303060FFF7A6FC054600BFC5
:100D8000306880033FF548AEFFF79EFC401B6428A7
:100D9000F6D9032002B0BDE8F08100BF206AB0F5AB
:100DA000803F05D17168A26821F400311143716060
:100DB0007168626A21F47411114308437060012064
:100DC0003866FFF781FC0446306880013FF56DAF5F
:100DD000FFF77AFC001B02284FF00300F4D90EE75E
:100DE00070B538B10446406A30B10020206104F18A
:100DF000140007E0012070BD6068B0F5827F03D069
:100E000004F11C00002101600026A66294F8510044
:100E100020B9204684F8506000F038F8022084F8A9
:100E2000510094E8071001F48271036802F404424F
:100E300023F040030360236911440CF40062114461
:100E400003F002026369114403F00102A369E5693A
:100E5000114403F40072114405F03802256A11446C
:100E600005F08002A56A114305F4005211430160A8
:100E7000042101EA13414160C16921F40061C161AB
:100E80000120666584F85100304670BD70B586B0AB
:100E900040F60004C4F20104006804F52051002665
:100EA0008842049602D006B070BD00BF41F218001F
:100EB000C4F20200016802AD41F480510160016892
:100EC00001F4805101910199016841F00401016030
:100ED0000068294600F0040001900198A0200290CB
:100EE00002200390032005902046FFF7DFFA402000
:100EF000CDE90206204629460496FFF7D7FA06B048
:100F000070BD00002DE9F04383B01E4615460F4624
:100F10000446FFF7D9FB94F851108146012909D105
:100F2000002F4FF0010018BF002D0FD103B0BDE816
:100F3000F08300BF6068B0F5827F0DD104294FF0C7
:100F40000200F3D1A1680029EAD0EFE7002EEDD02E
:100F500094F85000012803D1022003B0BDE8F083CB
:100F6000012084F8500094F85100002104281CBF8F
:100F7000052084F851006165A563E687A68727638D
:100F8000E6862068A686216461640168490603D468
:100F9000016841F0400101606168731EE268B1FAC6
:100FA00081F1B3FA83F3DDF8288049095B09B2F5D2
:100FB000006F41EA030165D131B137F8021BC1600E
:100FC0002763E08E0138E086012518F1010032D157
:100FD00002E000BFFFF778FBE08E18B9E08F002831
:100FE00000F0B8802068816889070CD5E18E51B186
:100FF000012D08D1216B002531F8022BC26021633D
:10100000E18E0139E1868168C907E3D0E18F0029CB
:10101000E0D0C068A16B012521F8020BA163E08F2D
:101020000138E087D6E700BFFFF74EFBA0EB0900D1
:10103000404580F0AF80E08E18B9E08F002800F0C6
:1010400089802068816889070CD5E18E51B1012D16
:1010500008D1216B002531F8022BC2602163E18E9B
:101060000139E1868168C907DED0E18F0029DBD034
:10107000C068A16B012521F8020BA163E08F013844
:10108000E087D1E739B139780173206B01302063F3
:10109000E08E0138E086012518F1010032D101E02F
:1010A000FFF712FBE08E10B9E08F002852D02068C5
:1010B000816889070ED5E18E61B1012D0AD1216BBE
:1010C000002509780173216B206801312163E18ECD
:1010D0000139E1868168C907E2D0E18F0029DFD0BC
:1010E000C068A16B01250870A06B0130A063E08F80
:1010F0000138E087D4E700BFFFF7E6FAA0EB09006C
:10110000404547D2E08E08B9E08F18B32068816867
:1011100089070ED5E18E61B1012D0AD1216B002521
:1011200009780173216B206801312163E18E013957
:10113000E1868168C907DFD0E18F0029DCD0C06873
:10114000A16B01250870A06B0130A063E08F01380E
:10115000E087D1E72046022101224346CDF80090E6
:1011600000F0FCFB40B92046802100224346CDF828
:10117000009000F0F3FBB8B1606D40F020006065B6
:1011800020206065002084F85000012003B0BDE8F5
:10119000F08300BF012084F85100002084F8500043
:1011A000032003B0BDE8F083A06838B900200290A6
:1011B0002068C1680291806802900298012084F83A
:1011C0005100002084F85000606D002818BF0120F5
:1011D00003B0BDE8F0830000411E0020B0EB116FAA
:1011E0001CBF012070474EF21002CEF20002516087
:1011F0004EF62351CEF20001F0230B7007219060D0
:1012000011607047FEE700002DE9F04184B040F620
:101210000005C4F2010504462846102100224FF0C3
:101220000008FFF74BFA40F2A4061A20C2F20006AB
:101230008DF80D0064270DF10D0103AA304601233E
:101240000097FFF75FFE0DF10F010DF10E02304622
:1012500001238DF80F800097FFF754FE28461021D8
:101260000122FFF72BFA42F29300208002AF0C20FC
:10127000214602222346009700F084F910B104B001
:10128000BDE8F08120786178A278E378484050404A
:1012900021795840401A18BF0120400004B0BDE831
:1012A000F0810000F0B583B040F60004C4F2010400
:1012B000204610210122FFF701FA04F58060012188
:1012C0000122FFF7FBF92046102100220027FFF73B
:1012D000F5F940F2A4050220C2F200058DF80B00DA
:1012E00064260DF10B010DF10A0228460123009638
:1012F000FFF708FE0F208DF80B000DF10B010DF12B
:101300000A02284601230096FFF7FCFD2046102123
:101310000122FFF7D3F9204610210022FFF7CEF972
:1013200054208DF80B000DF10B010DF10A02284637
:1013300001230096FFF7E6FD8D208DF80B000DF1DF
:101340000B010DF10A02284601230096FFF7DAFD92
:10135000204610210122FFF7B1F92046102100227A
:10136000FFF7ACF956208DF80B000DF10B010DF1D4
:101370000A02284601230096FFF7C4FD3E208DF89F
:101380000B000DF10B010DF10A0228460123009616
:10139000FFF7B8FD204610210122FFF78FF9204604
:1013A00010210022FFF78AF95A208DF80B000DF169
:1013B0000B010DF10A02284601230096FFF7A2FD5A
:1013C0001E208DF80B000DF10B010DF10A022846CD
:1013D00001230096FFF796FD204610210122FFF71A
:1013E0006DF9204610210022FFF768F958208DF88A
:1013F0000B000DF10B010DF10A02284601230096A6
:10140000FFF780FD0DF10B010DF10A0228460123C3
:101410008DF80B700096FFF775FD20461021012214
:10142000FFF74CF9204610210022FFF747F92A2048
:101430008DF80B000DF10B010DF10A022846012376
:101440000096FFF75FFD40208DF80B000DF10B01BA
:101450000DF10A02284601230096FFF753FD2046AE
:1014600010210122FFF72AF9204610210022FFF760
:1014700025F922208DF80B000DF10B010DF10A0268
:10148000284601230096FFF73DFD3D208DF80B0017
:101490000DF10B010DF10A02284601230096FFF71A
:1014A00031FD204610210122FFF708F920461021C6
:1014B0000022FFF703F9A8208DF80B000DF10B01B6
:1014C0000DF10A02284601230096FFF71BFD0DF1DE
:1014D0000B010DF10A02284601238DF80B700096CE
:1014E000FFF710FD204610210122FFF7E7F8142036
:1014F000032100F0C5FA03B0F0BD00002DE9F04172
:1015000084B040F60008C4F201080C460546404687
:1015100010210022FFF7D2F840F2A4071A20C2F2ED
:1015200000078DF80D0064260DF10D0103AA384661
:1015300001230096FFF7E6FC07208DF80F000DF160
:101540000F010DF10E02384601230096FFF7DAFC79
:10155000404610210122FFF7B1F802AF0C202146CE
:10156000012223462570009700F00CF802991029FB
:10157000014618BF0221002818BF0221084604B006
:10158000BDE8F0812DE9F04F87B017460C2888465A
:101590000293049006D00E2808D111200590122045
:1015A00007E000BF31200590772002E00120059080
:1015B000002040F60006C4F20106039000F1800509
:1015C0003046102100224FF00009FFF777F840F273
:1015D000A40A0420C2F2000A8DF81B0064240DF155
:1015E0001B010DF11A02504601230094FFF78AFCFB
:1015F0000DF11B010DF11A02504601238DF81B500D
:101600000094FFF77FFC304610210122FFF756F8C7
:1016100004208021FEF76EFE0A20802100F030FABF
:10162000304610210022FFF749F802208DF81B00F8
:101630000DF11B010DF11A02504601230094FFF732
:1016400061FC0DF11B010DF11A02504601238DF8CA
:101650001B900094FFF756FC304610210122FFF743
:101660002DF867B340F2A40AA8F10105C2F2000AFE
:101670000DF11B090DF11A0815F801BF30461021B4
:1016800000226424FFF71AF812208DF81B00504640
:101690004946424601230094FFF734FC6424504637
:1016A0004946424601238DF81BB00094FFF72AFCFF
:1016B000304610210122FFF701F8013FDCD130460E
:1016C00010210022FEF7FAFF40F2A4070220C2F226
:1016D00000078DF81B000DF11B010DF11A023846B1
:1016E00001230094FFF70EFC049D0DF11B010DF189
:1016F0001A02384601238DF81B500094FFF702FCB4
:10170000304610210122FEF7D9FF0C2D03D10D2008
:10171000802100F0B5F94FF6300540F2A409CFF66C
:10172000FF754FF088084FF0640AC2F200090DF10E
:101730001B0B0DF11A0400BF304610210022FEF7EA
:10174000BDFF48465946224601238DF81B80CDF83F
:1017500000A0FFF7D7FB00208DF81B004846594634
:1017600022460123CDF800A0FFF7CCFB9DF81A70AC
:10177000304610210122FEF7A1FF013580F0D08014
:1017800005983842D8D00D208021FEF7B3FD3046B1
:10179000102100224FF00008FEF790FF40F2A40451
:1017A0008C20C2F200048DF81B0064250DF11B0192
:1017B0000DF11A02204601230095FFF7A3FB0DF15E
:1017C0001B010DF11A02204601238DF81B800095A4
:1017D000FFF798FB9DF81A40304610210122FEF7D2
:1017E0006DFF14F01B0F40F09F8003980499384060
:1017F0000C2900F0010040F098800590304610213F
:1018000000224FF010094FF00008FEF757FF40F29A
:10181000A4059420C2F200050DF11A0B8DF81B00EF
:1018200064240DF11B0128465A4601230094B24658
:101830000126FFF767FB0DF11B010DF11A02284687
:1018400001238DF81B800094FFF75CFB9DF81A7054
:10185000504610210122FEF731FF50461021002290
:10186000FEF72CFF98208DF81B000DF11B010DF1E8
:101870001A02284601230094FFF744FB0DF11B01D7
:101880000DF11A02284601238DF81B800094FFF702
:1018900039FB9DF81A80504610210122FEF70EFFF9
:1018A00018F0070040EAC7001099A0F1080008BF2F
:1018B000F8000860012F98BF3746102F28BF4F4609
:1018C00002984FF09209A0F1010800BF5046102184
:1018D0000022FEF7F3FE0DF11B06284631465A465C
:1018E00001238DF81B900094FFF70CFB00208DF86E
:1018F0001B00284631465A4601230094FFF702FB9D
:101900009DF81A60504610210122FEF7D7FE013FD4
:1019100008F8016FDAD1059807B0BDE8F08F00BF75
:101920000D208021FEF7E6FC022007B0BDE8F08F15
:10193000FEE70000FEE7000010B5044600F0B0FA34
:101940004E20002100F058FA204600F0CFFABDE802
:10195000104000F0C1BA0000704700002DE9F043CC
:1019600081B0089C984615460E468146FEF7ACFEAF
:10197000201A00EB0804FEF7A7FE40F21C01C2F299
:1019800000010968C1F3CB3161430091D9F800101F
:101990008A683240921BB2FA82F25209AA423DD0C2
:1019A000074618F1010031D0FEF78EFEC01BA042A1
:1019B00038D2009800990028A1F101010091D9F8CE
:1019C0000010896808BF044601EA0600801BB0FACF
:1019D00080F04009A842E7D120E000BF886830408D
:1019E000801BB0FA80F04009A84217D088683040C8
:1019F000801BB0FA80F04009A8420FD088683040C0
:101A0000801BB0FA80F04009A84207D088683040B7
:101A1000801BB0FA80F04009A842DFD1002001B05D
:101A2000BDE8F083D9E900014268B1F5827F22F078
:101A3000E00242600BD1D9F80810B1F5004F02D096
:101A4000B1F5806F03D1016821F040010160D9F840
:101A50002810B1F5005F07D1016821F40051016041
:101A6000016841F400510160012089F85100002013
:101A700089F85000032001B0BDE8F08370470000F2
:101A80002DE9F04784B040F60008C4F201088A4608
:101A900006464046102100224FF00009FEF70EFED8
:101AA000802040F2A40540EA4600C2F200058DF80D
:101AB000090064240DF1090102AA284601230094BB
:101AC000FFF720FA0DF10B010DF10A022846012360
:101AD0008DF80B900094FFF715FA9DF80A704046B8
:101AE00010210122FEF7EAFD40461021002247EABC
:101AF0000A07FEF7E3FD7E2000EA46008DF80D00A0
:101B00000DF10D0103AA284601230094FFF7FAF90D
:101B10000DF10F010DF10E02284601238DF80F7013
:101B20000094FFF7EFF9404610210122FEF7C6FDB1
:101B300004B0BDE8F0870000FEF7CCBD70470000A0
:101B40001020C4F20000016821F00101016040F2A0
:101B5000FC01C2F200010A6840F60C00B2F5FA7FFF
:101B6000C4F201000CDB00220A60016821F00101CF
:101B700001604FF08040016821F001010160704771
:101B800001320A60016841F0010101607047000004
:101B9000FEE700000128B8BF704780B54EF2100183
:101BA00041F6401ECEF20001C0F2010E10F0030C0F
:101BB00003462CD00023C1F804E08B600B68DB03E4
:101BC00009D40B68DB035CBF0B685FEAC33302D444
:101BD0000B68DB03F2D5BCF1010F03D1431E0428CF
:101BE00017D32DE00023C1F804E08B600B68DB0302
:101BF00009D40B68DB035CBF0B685FEAC33302D414
:101C00000B68DB03F2D5BCF1020F05D1831E04285B
:101C100016D2BDE8804070470023C1F804E08B6015
:101C20000B68DB0309D40B68DB035CBF0B685FEA5E
:101C3000C33302D40B68DB03F2D5C31E0428E8D3F8
:101C4000002001E0043BE4DDC1F804E088600A689C
:101C5000D20309D40A68D2035CBF0A685FEAC232C1
:101C600002D40A68D203F2D5C1F804E088600A6899
:101C7000D20309D40A68D2035CBF0A685FEAC232A1
:101C800002D40A68D203F2D5C1F804E088600A6879
:101C9000D20309D40A68D2035CBF0A685FEAC23281
:101CA00002D40A68D203F2D5C1F804E088600A6859
:101CB000D203C7D40A68D2035CBF0A685FEAC232A3
:101CC000C0D40A68D203F2D5BCE700000128C0F2F4
:101CD00091804EF21001CEF2000110F00303024693
:101CE0003CD048224A6000228A600A68D20309D4A4
:101CF0000A68D2035CBF0A685FEAC23202D40A688B
:101D0000D203F2D5012B01D1421E27E048224A60BE
:101D100000228A600A68D20309D40A68D2035CBF31
:101D20000A685FEAC23202D40A68D203F2D5022BF3
:101D300002D1821E12E000BF48224A6000228A605F
:101D40000A68D20309D40A68D2035CBF0A685FEA52
:101D5000C23202D40A68D203F2D5C21E042838BFA8
:101D600070474FF0480C002302E000BF043A41DD09
:101D7000C1F804C08B600868C00309D40868C003B8
:101D80005CBF08685FEAC03002D40868C003F2D5BF
:101D9000C1F804C08B600868C00309D40868C00398
:101DA0005CBF08685FEAC03002D40868C003F2D59F
:101DB000C1F804C08B600868C00309D40868C00378
:101DC0005CBF08685FEAC03002D40868C003F2D57F
:101DD000C1F804C08B600868C003C7D40868C0039A
:101DE0005CBF08685FEAC030C0D40868C003F2D5A1
:101DF000BCE700BF7047000045F21442C4F2000285
:101E0000084322F8040C1088800709D41088800742
:101E10005CBF10885FEA807002D410888007F2D51A
:101E20001088400509D532F8140C40F4007022F8EF
:101E3000140C108820F480601080108890887047FF
:101E400041F21800C4F20200416841F400114160FF
:101E5000016841F00801016040F60040C4F2010051
:101E6000016821F07F410160016841F07F4101601C
:101E700045F20040C4F20000018841F400410180B5
:101E800001886FF3DF310180082181802D2181835A
:101E900009210184018841F001010180704700009F
:101EA00045F21440C4F2000030F8141C41F4807173
:101EB00020F8141C04E000BF0188C90718BF704750
:101EC0000188C90706D10188C90704BF01885FEAF4
:101ED000C171F1D07047000045F20040C4F200002B
:101EE000018841F4007101807047000045F21441FF
:101EF000C4F200010A88120609D40A8812065CBFDF
:101F00000A885FEA026202D40A881206F2D521F832
:101F1000040C03E00888400748BF70470888400762
:101F200006D4088840075CBF08885FEA4070F1D596
:101F30007047000041F21801C4F2020108684FF630
:101F4000FF7340F00400086040F60400C4F2010092
:101F5000026841F2111C9A430260026842EA0C02D4
:101F60000260826842F4706282600A6842F008028D
:101F70000A60D0F8002492B2C0F80024D0F80024FF
:101F800042F0084242F40802C0F8002440F60C4235
:101F9000C4F20102136843F4704313600A6842F00C
:101FA00001020A604FF61001CFF6FF71425842EA73
:101FB0000C0242504FF6FC31CFF6FF71425842F40A
:101FC000704242504FF60841CFF6FF71425842F43A
:101FD000704242504EF20410CEF20000016841F40B
:101FE0008071016070470000012BB8BF70472DE978
:101FF000F04F81B092466FF07F02DDF82890022802
:1020000008BF6FF03F0250189B46AAF1010100265D
:10201000C7B200910FE000BF4846FFF7BBFD0120AB
:1020200000F05CF80220FFF7B5FD4846FFF7B2FD6F
:1020300001365E4544D0384600F050F86420FFF782
:1020400045FE9AF80040002CE6D0009D0920FFF7DD
:1020500073FC0A20FFF73AFE0D20FFF76DFC052008
:10206000FFF734FE24F00F0808F10D00C0B2FFF7AF
:1020700063FC0A20FFF72AFE08F10900C0B2FFF74F
:102080005BFC1420FFF722FE0D20FFF755FC052016
:10209000FFF71CFE240104F10D00C0B2FFF74CFC59
:1020A0000A20FFF713FE04F10900C0B2FFF744FC59
:1020B0006420FFF70BFEAC780135002CC6D1ABE7EE
:1020C00001B0BDE8F04F704780B5012000F006F880
:1020D0000220BDE88040FFF75DBD0000B0B50446BA
:1020E0000820FFF729FC0A20FFF7F0FD0C20FFF77E
:1020F00023FC0520FFF7EAFD04F0F00505F10C00D4
:10210000FFF71AFC0A20FFF7E1FD05F10800FFF7D1
:1021100013FC1420FFF7DAFD0C20FFF70DFC05205F
:10212000FFF7D4FD240104F10C00C0B2FFF704FC5A
:102130000A20FFF7CBFD04F10800C0B2BDE8B040B3
:10214000FFF7FABBB0B504460920FFF7F5FB0A20FC
:10215000FFF7BCFD0D20FFF7EFFB0520FFF7B6FDF5
:1021600004F0F00505F10D00FFF7E6FB0A20FFF78C
:10217000ADFD05F10900FFF7DFFB1420FFF7A6FD19
:102180000D20FFF7D9FB0520FFF7A0FD240104F186
:102190000D00C0B2FFF7D0FB0A20FFF797FD04F156
:1021A0000900C0B2BDE8B040FFF7C6BB80B5FFF77D
:1021B00047FE1420FFF7EEFC0820FFF7BDFB0A20C6
:1021C000FFF784FD0C20FFF7B7FB0520FFF77EFD2E
:1021D0003C20FFF7B1FB0A20FFF778FD3820FFF71E
:1021E000ABFB0A20FFF7D6FC0820FFF7A5FB0A206F
:1021F000FFF76CFD0C20FFF79FFB0520FFF766FD46
:102200003C20FFF799FB0A20FFF760FD3820FFF71D
:1022100093FB0120FFF7BEFC0820FFF78DFB0A208F
:10222000FFF754FD0C20FFF787FB0520FFF74EFD5D
:102230003C20FFF781FB0A20FFF748FD3820FFF71D
:102240007BFB0120FFF7A6FC0820FFF775FB0A20A7
:10225000FFF73CFD0C20FFF76FFB0520FFF736FD75
:102260002C20FFF769FB0A20FFF730FD2820FFF73D
:1022700063FB2C20FFF732FF0520FFF78BFC0C20BF
:10228000FFF72CFF0520FFF785FC0120FFF726FF55
:102290000520FFF77FFC0220FFF720FF0520BDE8A7
:1022A0008040FFF777BC000010B514466FF07F0246
:1022B000022808BF6FF03F025018C0B2FFF70EFFB0
:1022C0006420FFF703FD2078002808BF10BD013C03
:1022D000C0B2FFF737FF6420FFF7F8FCA0780134A5
:1022E0000028F5D110BD000090B0FEF701FA0024DF
:1022F0000120CDE90B44CDE9094406900A904FF442
:10230000E0104FF4803102250F9006A8CDE90714A4
:10231000CDE90D51FEF764FB20B1EFF3108072B6EA
:10232000FEE700BF0F20CDE901054FF48060CDE945
:10233000040401A802210394FEF770FA20B1EFF320
:10234000108072B6FEE700BF41F21809C4F202091C
:10235000D9F8000040F60C0840F01000C9F8000061
:10236000D9F80000C4F2010800F0100006900698A9
:10237000D9F8000008F2F47540F02000C9F8000018
:10238000D9F800004FF4005100F0200006900698A4
:10239000D9F80000002240F00400C9F80000D9F884
:1023A00000004FF4005B00F0040006900698D9F896
:1023B0000000002440F00800C9F80000D9F800002F
:1023C00000F00800069006982846FEF777F9A8F175
:1023D0000C06304610210022FEF770F908F57D77D3
:1023E0003846012100224FF0010AFEF767F9CDE9D6
:1023F00006BA0DF1180B4FF0020A28465946089408
:10240000CDF824A00125FEF751F81020CDE90605EE
:1024100030465946CDE9084A0226FEF747F83846C5
:102420005946CDE90655CDE90846FEF73FF840F29A
:10243000800742F2F470C2F2000708EB0001384650
:1024400040F8241F4FF48271C0E9011410214FF4A9
:102450000072C0E907140A21C0E90344C0E905423B
:10246000C0E90944C162FEF7BBFC28B1EFF310805C
:1024700072B600BFFEE700BFFEF714FF00F024FBBA
:10248000FFF758FDFFF792FE00F0ECFAD9F80000D4
:1024900048F69F4140F00400C9F8000058F80C0CC1
:1024A00020F00F0048F80C0C58F80C0C40F001001C
:1024B00048F80C0CD8F8000020F00100C8F8000023
:1024C000D9F8040040F00100C9F804000C20C4F25F
:1024D0000000C5610162016841F0010101604EF236
:1024E0000010CEF20000016841F0805101604FF011
:1024F0008041086820F0010008609C2000F0F2FA9A
:10250000FFF7E2FD0FF2184201200321FFF7CCFE96
:102510000FF2184202200521FFF7C6FE4FF4966025
:10252000FFF738FBFFF7D0FD40F20004C2F20004D1
:1025300020680FF2904945E040F60C05C4F2010511
:10254000286840F0010028609620FFF723FB2868E8
:1025500020F0010028603220FFF71CFB286840F0C3
:10256000010028609620FFF715FB286820F0010085
:1025700028603220FFF70EFB286840F00100286039
:102580009620FFF707FB286820F001002860322022
:10259000FFF700FB01200121EDA20223FA2600969D
:1025A000FFF722FD4FF4FA70FFF7F4FA0120032140
:1025B000ECA2FFF779FE4FF4FA70FFF7EBFAFFF7A2
:1025C00083FD206801287DD101200121D9A2FFF7D8
:1025D0006BFE07F1110526202946FEF78FFF002824
:1025E000B870EED1FFF770FD01200021D5A2FFF7F2
:1025F0005BFE2846FEF708FEB870D7F81100797D1B
:1026000042F61A35C0F60005C7F8050079720120B8
:1026100008212A46FFF748FE4FF49670FFF7BAFAF2
:10262000012009212A46FFF73FFE4FF49670FFF77D
:10263000B1FA01200A212A46FFF736FE4FF49670C0
:10264000FFF7A8FA01200B212A46FFF72DFE4FF4D1
:102650009670FFF79FFA01200C212A46FFF724FE0F
:102660004FF49670FFF796FAFFF72EFD787CF2286C
:102670007FF462AFB87CB6287FF45EAFF87C412867
:102680007FF45AAF387D02287FF456AF787D072853
:102690007FF452AF4FF080410868B5A240F00100CE
:1026A00008600120022103234FF496750095FFF77F
:1026B0009BFC4FF49670FFF76DFA02202060002516
:1026C00006E000BF02284FF0000540F09A8000BFEE
:1026D0004FF02D30C4F80B0042F62D50A4F80F0037
:1026E00001200121A6A27D703D70BD72FFF7DCFDC7
:1026F00078782A2605281ED92EE000BF3D7078780C
:10270000F9783A1891720AF8001002200521524611
:10271000FFF7CAFDFA20FFF73DFA787805210AF89D
:10272000006002205246FFF7BFFD787801307870D4
:10273000C0B2062810D204F10B0A0220052152462D
:10274000FFF7B2FD00F04AF938780028D6D1787842
:10275000C0B20628EFD300BFFFF7B6FC07F10A00AE
:10276000211DFDF747FD00285AD040F60C06C4F2A3
:102770000106306840F0010030606420FFF70AFA7B
:10278000306820F0010030603220FFF703FA306833
:1027900040F0010030606420FFF7FCF9306820F061
:1027A000010030603220FFF7F5F9306840F0010099
:1027B00030606420FFF7EEF9306820F001003060EF
:1027C0003220FFF7E7F90120012171A202234FF423
:1027D00096760096FFF708FC4FF4FA70FFF7DAF9E7
:1027E000FFF772FC012003216DA2FFF75DFD4FF49E
:1027F000FA70FFF7CFF9FFF767FC206802283FF473
:1028000067AF42F61C3A0328C0F6000A0FF2AC1B71
:102810000FF2B4186DA56EA67FF4D4AE20E000BF11
:102820004FF08041086861A240F00100086001207B
:10283000012102234FF496760096FFF7D5FB4FF463
:102840001670FFF7A7F9032042F61C3A2060C0F685
:10285000000A0FF2681B0FF270185CA55CA600BF9F
:10286000012002215246FFF71FFD002000F03AF937
:102870004FF4FA60FFF78EF9FFF726FC42F62A3292
:1028800001200021C0F60002FFF70EFD0220072103
:102890005A46FFF709FD4FF47A70FFF77BF90220E3
:1028A000072147A2FFF700FD4FF47A70FFF772F996
:1028B000022007214A46FFF7F7FC4FF47A70FFF732
:1028C00069F9022007214246FFF7EEFC4FF47A70C7
:1028D000FFF760F9022007212A46FFF7E5FC642094
:1028E000FFF758F99C2000F0FDF84FF4FA70FFF75D
:1028F00051F9FFF7E9FB012003213246FFF7D4FC31
:102900004FF47A70FFF746F901202060FFF7DCFBF7
:102910004FF47A70FFF73EF920680328A0D051E603
:10292000536D617274204C6F636B000053595354A4
:10293000454D00005363616E205246494420636157
:10294000726420005363616E6E696E670000000060
:1029500043617264277320494E56414C49442121FA
:10296000000000005363616E20616761696E2100A1
:102970004361726427732056414C49442100000092
:10298000456E7465722070617373776F72640000B6
:1029900057726F6E672050617373776F7264210096
:1029A00054727920616761696E20210052696768FD
:1029B000742050617373776F726400003473000089
:1029C0003373000032730000317300003073000075
:1029D000446F6F72204C6F636B65640010B540F6F6
:1029E0000C04C4F20104206840F4E0602060206818
:1029F00020F4006020600120FFF7CCF84FF49670BF
:102A0000FFF764F9206840F430602060206820F40B
:102A1000806020600120FFF7BDF84FF49670FFF74B
:102A200055F9206840F450602060206820F4007060
:102A300020600120FFF7AEF84FF49670FFF746F9DB
:102A4000206840F460602060206820F4807020607E
:102A50000120FFF79FF84FF49670BDE81040FFF794
:102A600035B9000041F21800C4F20200016841F0DB
:102A70000901016040F60441C4F201010A6822F034
:102A80000F020A600A6842F009020A60416841F0D8
:102A90000401416040F60000C4F2000031210185CC
:102AA00047F27F0181854FF434718187818B41F03A
:102AB00060018183018C41F480710184018841F0BF
:102AC00001010180704700004EF21000CEF20000BC
:102AD00000216FF07F42016042608160052101604A
:102AE000704700004FF4347101EB001040F63C01D8
:102AF000C4F20001088070470000000000000000E0
:102B0000010203040607080901020203040506077F
:102B100008090A0B0C0D0E0F10102E00446F6F7277
:102B200020556E6C6F636B656400446F6F72276C29
:102B30006C20636C6F736520696E0000602B000869
:102B4000000000202000000050010008802B000839
:102B500020000020E80600007001000800000000CE
:102B600001000000383838393939002D2D2D2D2D30
:102B70002D000000010000001000000000127A008B
:04000005080000ED02
:00000001FF
